:020000040800F2
:1000000000800120613500080D1200080F12000861
:100010001112000813120008151200080000000059
:10002000000000000000000000000000171200089F
:1000300019120008000000001B1200081D12000821
:10004000B1350008B1350008B1350008B1350008F8
:10005000B1350008B1350008B1350008B1350008E8
:10006000B1350008B1350008B1350008B1350008D8
:10007000B1350008B1350008B1350008B1350008C8
:100080002512000835120008B1350008B135000806
:10009000B1350008B1350008B1350008B1350008A8
:1000A000B1350008B1350008B1350008B135000898
:1000B000B1350008B1350008B1350008B135000888
:1000C000B1350008B1350008B1350008B135000878
:1000D000B1350008B135000845120008B1350008F7
:1000E000B1350008B1350008B1350008B135000858
:1000F000B1350008B1350008B1350008B135000848
:10010000B1350008B1350008B1350008B135000837
:10011000B1350008B1350008B1350008B135000827
:10012000B1350008B1350008B1350008B135000817
:10013000B1350008B1350008B1350008B135000807
:10014000B1350008B1350008B1350008B1350008F7
:10015000B1350008B1350008B1350008B1350008E7
:10016000B1350008B1350008B1350008B1350008D7
:10017000B1350008B1350008B135000800000000B5
:08018000B1350008B13500089B
:1001880010B5054C237833B9044B13B10448AFF3C9
:1001980000800123237010BD100000200000000023
:1001A8000C36000808B5034B1BB103490348AFF3ED
:1001B800008008BD00000000140000200C36000874
:1001C80053B94AB9002908BF00281CBF4FF0FF31B6
:1001D8004FF0FF3000F072B9ADF1080C6DE904CEB4
:1001E80000F006F8DDF804E0DDE9022304B070470A
:1001F8002DE9F047089E04468846002B4BD18A42D9
:10020800154667D9B2FA82F24AB1C2F1200701FA5B
:1002180002F320FA07F7954047EA030894404FEAAB
:10022800154E230CB8FBFEF71FFA85FC0EFB17884A
:1002380043EA084307FB0CF1994209D9EB1807F187
:10024800FF3080F01B81994240F21881023F2B4415
:100258005B1AA4B2B3FBFEF00EFB103344EA03446E
:1002680000FB0CFCA44509D92C1900F1FF3380F0E0
:100278000781A44540F2048102382C4440EA074033
:10028800A4EB0C0400271EB1D4400023C6E90043A8
:100298003946BDE8F0878B4209D9002E00F0EB8083
:1002A8000027C6E9000138463946BDE8F087B3FAA9
:1002B80083F7002F47D18B4202D3824200F2FA80A3
:1002C800841A61EB030301209846002EE0D0C6E9AA
:1002D8000048DDE702B9FFDEB2FA82F2002A40F0F8
:1002E8008F80491B4FEA154E1FFA85F80127B1FB8D
:1002F800FEFC230C0EFB1C1143EA014308FB0CF126
:10030800994207D9EB180CF1FF3002D2994200F25A
:10031800CD808446591AA3B2B1FBFEF00EFB10142F
:1003280043EA044408FB00F8A04507D92C1900F15A
:10033800FF3302D2A04500F2B6801846A4EB0804A9
:1003480040EA0C409FE7C7F1200CBB4022FA0CFEA4
:100358004EEA030E01FA07F420FA0CF521FA0CF321
:100368004FEA1E482543B3FBF8F92C0C08FB193358
:100378001FFA8EFA44EA034309FB0AF49C4202FA84
:1003880007F200FA07F10BD91EEB030309F1FF305E
:1003980080F087809C4240F28480A9F1020973446E
:1003A8001B1BADB2B3FBF8F008FB103345EA03445E
:1003B80000FB0AFAA24508D91EEB040400F1FF333A
:1003C8006BD2A24569D90238744440EA0940A0FBBF
:1003D8000289A4EB0A044C45C2464B4654D351D07B
:1003E800002E69D0B1EB0A0564EB030404FA0CFC97
:1003F800FD40FC404CEA0505C6E90054002747E7E4
:10040800C2F1200320FA03F7954001FA02F021FA1D
:1004180003F34FEA154E3843010CB3FBFEF71FFAFE
:1004280085F80EFB173341EA034107FB08F38B42BB
:1004380004FA02F407D9691807F1FF3C2FD28B425E
:100448002DD9023F2944CB1A81B2B3FBFEF00EFB33
:10045800103341EA034100FB08F38B4207D96918BE
:1004680000F1FF3C17D28B4215D902382944C91A2A
:1004780040EA07473BE73746304609E70746E7E6DD
:100488001846FBE64145ABD2B8EB020A69EB0E020F
:1004980001381346A4E76046E9E7184695E767463A
:1004A800D1E781467CE702382C4447E7ACF1020CDF
:1004B8002B442FE7384608E73746E9E6704700BF80
:1004C800034613F8012B002AFBD1181A013870478C
:1004D80010B58AB0002405940694079408940994EA
:1004E800214BDA6C42F00402DA64DA6C02F004029E
:1004F8000192019ADA6C42F08002DA64DA6C02F056
:1005080080020292029ADA6C42F00102DA64DA6C32
:1005180002F001020392039ADA6C42F00202DA64F2
:10052800DB6C03F002030493049B224620214FF066
:10053800904001F063F94FF4005305934FF404130E
:100548000693079405A9094801F06EF8202305933E
:10055800012306930794089405A94FF0904001F0F1
:1005680063F80AB010BD00BF001002400008004840
:1005780000B583B00E4B9A6C42F001029A649B6CF2
:1005880003F001030193019B00221146102000F0A3
:10059800C7FE102000F0F8FE00221146112000F0DE
:1005A800BFFE112000F0F0FE03B05DF804FB00BFB1
:1005B8000010024010B50446FFF782FF0A2382B2FA
:1005C8002146024802F056FE10BD00BFDC000020A4
:1005D8000B4B64221A7000225A704B219970DA7002
:1005E8001A715A719A710121D9715A821A751A723F
:1005F800C3F80920C3F80D205A759A75704700BFD3
:100608007C00002070B5124D2846FFF7D3FF114E2D
:100618003046FFF7CFFF104C2046FFF7CBFF0F48BF
:10062800FFF7C8FF2046FFF7C5FF2046FFF7C2FFC8
:100638003046FFF7BFFF2846FFF7BCFF0848FFF723
:10064800B9FF0848FFF7B6FF0748FFF7B3FF70BDCB
:10065800C03D0008BC360008F43600082C370008F6
:1006680064370008743700088437000808B509485B
:10067800FFF7A0FF0848FFF79DFF0848FFF79AFF1C
:100688000748FFF797FF0748FFF794FF0648FFF76B
:1006980091FF08BD8C370008B0370008E037000824
:1006A800103800083C3800088437000808B50648A8
:1006B800FFF780FF0548FFF77DFF0548FFF77AFF42
:1006C8000448FFF777FF08BD6C3800088C3800082D
:1006D800BC3800088437000808B51548FFF76AFFDA
:1006E800144B93F90130212B1ADD422B1CDD1248E3
:1006F800FFF760FF1148FFF75DFF1148FFF75AFF4A
:100708001048FFF757FF1048FFF754FF0F48FFF74F
:1007180051FF0F48FFF74EFF0E48FFF74BFF08BD8C
:100728000D48FFF747FFE5E70C48FFF743FFE1E710
:10073800E83800087C00002074390008B83900083F
:10074800D4390008F0390008043A00081C3A0008B7
:10075800383A000884370008F838000838390008A3
:1007680030B589B06C46174D0FCD0FC495E80F0012
:1007780084E80F001448FFF71DFF0024012200E061
:100788000134072C13DC114B23445B7A002BF7D080
:100798000F48FFF70FFF08AB03EB840353F8200C57
:1007A800FFF708FF0B48FFF705FF0022E8E722B92B
:1007B8000948FFF7FFFE09B030BD0848FFF7FAFE09
:1007C800F6E700BF283600085C3A00087C000020E5
:1007D800703A0008C03D0008903A0008743A0008D2
:1007E80030B585B02449CA7902EBC20302EB830213
:1007F80091F900301A440D32204B83FB0203A3EB1E
:10080800E27303EB4303D31A0A7A022A27D8DCB22D
:10081800194B23445B7A33BB194B93E8070004ABAD
:1008280003E90700144D2B1901225A721548FFF7E6
:10083800C1FE04AB03EB840353F80C0CFFF7BAFEBC
:100848001148FFF7B7FE2B7A01332B720A4AD37986
:100858000133D3710D48FFF7ADFE05B030BD0C482C
:10086800FFF7A8FEF2E70B48FFF7A4FE024A137A47
:1008780001331372EAE700BF7C0000205655555536
:1008880048360008243B0008343B0008903A00082A
:10089800B43A0008EC3A000808B50948FFF78AFEA0
:1008A8000848FFF787FE0848FFF784FE0748FFF768
:1008B80081FE0748FFF77EFE0648FFF77BFE08BD6E
:1008C800383B0008503B0008643B0008743B0008B4
:1008D800883B00088437000808B503283AD8DFE8C1
:1008E80000F002213E55384A538A43F001035382EF
:1008F80012795AB113F0100F0CD1334B1B7D13F042
:10090800010F0BD03148FFF755FE23E03048FFF7C1
:1009180051FE1FE02F48FFF74DFE1BE02E48FFF762
:1009280049FE17E0284B5A8A42F002025A821B7984
:10093800012B10D0244A13780A335BB21370642B4E
:1009480002DD134664221A702448FFF733FE244858
:10095800FFF730FE08BD2348FFF72CFEFAE71A4AD6
:10096800538A43F0040353821279022A06D013F003
:10097800400F07D01C48FFF71DFEEBE71B48FFF7A9
:1009880019FEE7E71A48FFF715FEE3E70E4B5A8A08
:1009980042F008025A821B79032B0DD00A4A937839
:1009A8000A3B5BB29370002B0ADB1248FFF702FE8A
:1009B8001148FFF7FFFDCDE71048FFF7FBFDC9E73A
:1009C800134600229A70F0E77C0000202C3C0008B7
:1009D800983B0008D83B0008783C00081C3D0008FC
:1009E8004C3D0008CC3C0008C43D0008683D0008A8
:1009F800083E0008B83E0008FC3E0008603E0008BB
:100A080030B589B04D48FFF7D5FD4D4C2046FFF76E
:100A1800D1FD4C48FFF7CEFD2046FFF7CBFD4A48F5
:100A2800FFF7C8FD494B9B79012B7BD04848FFF75E
:100A3800C1FD4848FFF7BEFD444B9B79042B73D09A
:100A48004548FFF7B7FD3D48FFF7B4FD434C204646
:100A5800FFF7B0FD4248FFF7ADFD2046FFF7AAFDBE
:100A68004048FFF7A7FD394B9B79002B5ED13E48E4
:100A7800FFF7A0FD3D48FFF79DFD344B9B79032B05
:100A880056D03B48FFF796FD3848FFF793FD2F4BAC
:100A98009B79022B4ED03748FFF78CFD2748FFF78C
:100AA80089FD3548FFF786FD3448FFF783FD274B5E
:100AB8009B79052B40D03248FFF77CFD1F48FFF794
:100AC80079FD3048FFF776FD02AC2F4D0FCD0FC4EE
:100AD80095E8030084E803002C48FFF76BFD1B4CE6
:100AE800A37908AA02EB830353F8180CFFF762FDF9
:100AF8002748FFF75FFD0023ADF804308DF8063076
:100B0800E37930338DF8043001A8FFF753FD21480D
:100B1800FFF750FD0A48FFF74DFD1F48FFF74AFD54
:100B280009B030BD1D4882E71D488AE71D489FE788
:100B38001D48A7E71D48AFE71D48BDE7C03D0008B1
:100B4800A03F0008D03F0008F43F00087C000020C8
:100B58001C3F0008FC3F0008343F0008084000081C
:100B68002C40000850400008403F0008584000084A
:100B7800643F00087C3F000860400008844000088B
:100B8800943F0008A040000854360008D4400008EC
:100B9800E4400008F4400008903A0008103F0008BC
:100BA800283F00084C3F0008583F0008703F0008E5
:100BB800883F000808B51548FFF7FCFC144B9B79E3
:100BC800DBB91448FFF7F6FC114B9B79012B16D0C3
:100BD8001148FFF7EFFC0E4B9B79022B11D00F4801
:100BE800FFF7E8FC0A4B9B79032B0CD00C48FFF766
:100BF800E1FC0C48FFF7DEFC08BD0B48E2E70B48B8
:100C0800E7E70B48ECE70B48F1E700BFD0410008E5
:100C18007C0000200C4100085C4100088841000865
:100C2800BC410008843700082C4100083C410008FA
:100C38006C4100089841000808B51448FFF7BAFC51
:100C4800134B93F90130212B17DD422B19DD114885
:100C5800FFF7B0FC1048FFF7ADFC1048FFF7AAFCFF
:100C68000F48FFF7A7FC0F48FFF7A4FC0E48FFF753
:100C7800A1FC0E48FFF79EFC08BD0D48FFF79AFC43
:100C8800E8E70C48FFF796FCE4E700BFF8410008E6
:100C98007C0000209C420008E84200080843000845
:100CA800F0390008043A0008204300088437000897
:100CB8000C4200085042000810B582B01A4AD37995
:100CC80003EB0313073303F0010348BF5B421C46E1
:100CD800DBB20433DBB21A44527A02BB134A92E8FD
:100CE800030002AA02E903000F4A134401225A72C0
:100CF8000F48FFF75FFCE3B202AA02EB830353F845
:100D0800080CFFF757FC0B48FFF754FC064AD37949
:100D18000133D3710848FFF74DFC02B010BD0748F6
:100D2800FFF748FCF2E700BF7C0000206C360008A3
:100D380058430008343B0008903A00083043000844
:100D480008B50D4B93F90330142B0ADC0B48FFF759
:100D580031FC094AD3790133D3710948FFF72AFCDA
:100D680008BD143B044AD3700648FFF723FC064825
:100D7800FFF720FCEDE700BF7C000020A04300083F
:100D8800903A0008684300088843000808B50A4BF1
:100D98009B79032B05D8DFE803F00205080BFFF762
:100DA8009BFC08BDFFF748FFFBE7FFF795FCF8E75A
:100DB800FFF792FCF5E700BF7C00002008B5012290
:100DC8000349044802F098FB034B01221A7008BD3E
:100DD80078000020DC0000202C00002072B6FEE71E
:100DE80008B50B480B4B03604FF4E1334360002315
:100DF8008360C36003610C2242618361C361036243
:100E0800436202F0DCFA00B908BDFFF7E7FF00BF54
:100E1800DC0000200044004000B597B044220021C7
:100E280005A802F0E7FB00230093019302930393C4
:100E380004934FF4007000F0EFFC20BB02230593ED
:100E48004FF480720892102209920F931093012296
:100E580011920A221292072213921493159305A84D
:100E680000F0C4FD88B90F230093032301930023E6
:100E78000293039304930421684601F0C9F830B93A
:100E880017B05DF804FBFFF7A9FFFFF7A7FFFFF70F
:100E9800A5FF000008B500F009FAFFF7BDFFFFF74E
:100EA80017FBFFF79DFFFFF763FB01228249834889
:100EB80002F022FBFFF78CFBFFF7A4FB73E0702B1B
:100EC80009D0502B07D0782B01D0582B6BD17C48F8
:100ED800FFF770FBFEE77B4B01225A75FFF7C6FB55
:100EE80061E0313BDBB2032B5DD8764A13710223F4
:100EF8005375FFF7DBFB56E0652B0DD0452B0BD068
:100F0800682B01D0482B4ED16E4B01225A71032217
:100F18005A75FFF7E1FB46E06A4B00225A7103223B
:100F28005A75FFF7D9FB3EE0312B0FD0322B15D085
:100F3800332B19D0342B1FD0352B25D0362B32D15B
:100F4800604B07225A75FFF735FE2CE05D4B0322F4
:100F58009A7505225A75FFF743FC24E0594B042281
:100F68005A75FFF799FC1EE0564B03229A75052225
:100F78005A75FFF745FD16E0524B03229A75052274
:100F88005A75FFF7EDFB0EE04E4AD3790133D37162
:100F98004D48FFF70FFBFFF79FFB04E0494B9A7D95
:100FA8005A75FFF7F3FE494B1B78002BFBD0424BD9
:100FB8001B78464A00211170424A527D082AF2D80D
:100FC80001A151F822F000BFC70E0008EB0E00087F
:100FD800010F0008310F0008F50F0008A50F0008E1
:100FE800AF0F00081F10000861100008A3F13100BE
:100FF800C0B2032807D9352BD5D1324B03225A75F5
:10100800FFF76AFBCFE7FFF767FC2E4B05225A75FF
:1010180003229A75C7E7312B0AD0322B10D0332B15
:1010280016D0342BBFD1274B03229A715A75BAE7D1
:10103800244B00229A7103225A75FFF74DFBB2E741
:10104800204B01229A7108225A75FFF7F5FDAAE78D
:101058001C4B02229A71A6E7312B0DD0322B13D0EC
:10106800332B19D0342B1FD0352B9CD1154B07228D
:101078005A75FFF79FFD96E7124B08229A750522CD
:101088005A75FFF719FE8EE70E4B08229A7505224E
:101098005A75FFF755FE86E70A4B08229A7505220E
:1010A8005A75FFF7ADFC7EE7064B08229A750522B4
:1010B8005A75FFF755FB76E778000020DC00002022
:1010C800CC4300087C000020F44300082C000020DA
:1010D80082B00A4B1A6E42F001021A661A6E02F0CA
:1010E80001020092009A9A6D42F080529A659B6DB7
:1010F80003F080530193019B02B070470010024037
:1011080070B5AAB00446002125912691279128910F
:101118002991882203A802F06DFA2268334B9A427B
:1011280001D02AB070BD2AA8022340F89C3D01F0E6
:10113800BBF9002851D12E4B9A6D42F400329A65C2
:101148009A6D02F400320192019ADA6C42F00102BF
:10115800DA64DB6C03F001030293029B0C232593F2
:1011680002262696002527950323289307232993EB
:1011780025A94FF0904000F057FA1E481E4B036017
:1011880046608560C5608023036145618561C561EE
:10119800056200F01DF918BB164B23679C621748BF
:1011A800174B036002234360102383600023C3604E
:1011B8008022026143618361C361036200F008F920
:1011C80088B90E4BE3669C6200221146262000F087
:1011D800A7F8262000F0D8F8A3E7FFF7FFFDAAE755
:1011E800FFF7FCFDD8E7FFF7F9FDEAE70044004008
:1011F80000100240300000206C00024094000020E3
:1012080080000240FEE7FEE7FEE7FEE7FEE77047E4
:101218007047704708B500F05FF808BD08B5024888
:1012280000F09FF908BD00BF3000002008B5024853
:1012380000F097F908BD00BF9400002008B50248E7
:1012480001F0A0FB08BD00BFDC000020034AD2F873
:10125800883043F47003C2F88830704700ED00E02E
:10126800104B1B780BB90120704710B504464FF49A
:101278007A70B0FBF3F30C4A1068B0FBF3F000F09F
:1012880091F868B90F2C01D901200AE00022214603
:101298004FF0FF3000F044F8024B5C60002000E0A3
:1012A800012010BD040000200000002010B5094AEC
:1012B800136843F480731360032000F01FF80020C4
:1012C800FFF7CEFF10B10124204610BD0446FFF7FA
:1012D800FFFEF9E700200240034B1B78034A116820
:1012E8000B441360704700BF040000206001002019
:1012F800014B1868704700BF60010020074AD36897
:1013080023F4E0631B041B0C000200F4E0601843A4
:1013180040F0BF6040F40030D060704700ED00E05E
:1013280030B4174BDB68C3F30223C3F10704042C62
:1013380028BF04241D1D062D18D9033B4FF0FF3587
:1013480005FA04F421EA0401994005FA03F322EAB4
:101358000303194300280BDB0901C9B200F16040FF
:1013680000F5614080F8001330BC70470023E5E7C2
:1013780000F00F000901C9B2024B1954F4E700BF8D
:1013880000ED00E014ED00E0002807DB00F01F028C
:10139800400901239340024A42F82030704700BFB9
:1013A80000E100E00138B0F1807F0AD2064B5860B6
:1013B800064AF02182F823100020986007221A605C
:1013C80070470120704700BF10E000E000ED00E02A
:1013D800002869D010B403460168344A914245D8C0
:1013E800334A0A443349A1FB0212120992004264AB
:1013F800314A0264022283F825201868016821F422
:10140800FF4121F070019A68DC6822431C6922437D
:101418005C6922439C692243DC6922431C6A22439B
:101428000A4302609A68B2F5804F15D0196C224AB7
:10143800914226D0214A1168586C00F01C040F20F4
:10144800A04021EA00011160116858685C6C04F042
:101458001C04A040014311600020D863012283F8D6
:10146800252083F824005DF8044B7047144A0A4489
:101478001049A1FB0212120992004264114A026447
:10148800B8E7A8321168586C00F01C040F20A0407F
:1014980021EA00011160116858685C6C04F01C04B2
:1014A800A04001431160D7E70120704707040240BC
:1014B800F8FFFDBFCDCCCCCC00000240A804024010
:1014C800F8FBFDBF0004024090F82530DBB2022B88
:1014D80006D00423C363002380F82430012070471A
:1014E8000268136823F00E0313600268136823F080
:1014F80001031360436C03F01C03016C012202FA20
:1015080003F34B6080F82520002380F82430184628
:10151800704708B590F82530DBB2022B03D00423BE
:10152800C363012008BD0268136823F00E0313602B
:101538000268136823F001031360436C03F01C0373
:10154800016C012202FA03F34B6080F82520002386
:1015580080F82430836B13B198470020E2E700201D
:10156800E0E738B5036C196804682568436C03F034
:101578001C0304229A400A4215D015F0040F12D019
:10158800236813F0200F03D1236823F0040323609A
:10159800436C03F01C02016C042393404B60036B03
:1015A80003B1984738BD02229A400A421CD015F070
:1015B800020F19D0236813F0200F06D1236823F0F7
:1015C8000A032360012380F82530436C03F01C02D2
:1015D800016C022393404B60002380F82430C36AD7
:1015E800002BDFD09847DDE7082202FA03F30B420D
:1015F800D8D015F0080FD5D0236823F00E03236048
:10160800436C03F01C03016C012202FA03F34B60E4
:10161800C26380F82520002380F82430436B002B18
:10162800C0D09847BEE70000F0B482B0002364E061
:1016380086685F000325BD4026EA0506CD68BD40E3
:1016480035438560466826EA04064D68C5F30015EB
:101658009D40354345605EE0C66A26EA0406C5F348
:10166800C0049C403443C4625AE0DD08083550F891
:10167800257003F00704A6000F24B44027EA0407E6
:101688000C69B4403C4340F825405DE0062400E086
:101698000024B4403C430235544E46F82540544C8F
:1016A800A568D44304EA05064F6817F4801F01D0E3
:1016B80042EA05064E4DAE60ED6804EA05064F683D
:1016C80017F4001F01D042EA0506494DEE606D6827
:1016D80004EA05064F6817F4003F01D042EA050600
:1016E800434D6E602D682C404E6816F4803F01D043
:1016F80042EA05043E4A146001330A6832FA03F4E8
:1017080070D001249C402240F6D04D6805F00305B6
:10171800013D012D8CD94D6805F00306032E9BD0A1
:101728004C6804F00304032C09D0C5685E00032448
:10173800B44025EA04058C68B4402C43C4604C6866
:1017480004F00304022C90D005685E000324B44022
:1017580025EA04054C6804F00304B4402C430460F3
:101768004C6814F4403FC7D0224C256E45F0010563
:101778002566246E04F001040194019C9D08AE1CAA
:101788001A4C54F8267003F00304A6000F24B44042
:1017980027EA0407B0F1904F3FF47AAF164CA04205
:1017A80016D004F58064A04214D004F58064A042E9
:1017B80012D004F58064A04210D004F58064A042E1
:1017C8000ED004F58064A0423FF460AF072460E7C0
:1017D80001245EE702245CE703245AE7042458E75F
:1017E800052456E702B0F0BC704700BF0000014076
:1017F8000004014000100240000400480AB9816258
:101808007047816170470000024B186800F4C0609F
:10181800704700BF00700040B0F5007F0FD01F4B2D
:101828001B6803F4C063B3F5806F34D01B4A136898
:1018380023F4C06343F48063136000207047174BA0
:101848001B6803F4C063B3F5007F22D0134A136802
:1018580023F4C06343F400731360114B1A683223F6
:1018680003FB02F30F4AA2FB03239B0C013300E0A6
:10187800013B0A4A526912F4806F01D0002BF7D15C
:10188800064B5B6913F4806F01D100207047032079
:101898007047002070470020704700BF007000406C
:1018A8000000002083DE1B4330B583B00546204B83
:1018B8009B6D13F0805F0BD0FFF7A6FFB0F5007F9C
:1018C80017D0802D1FD82DD0702D2DD000211BE0D2
:1018D800174CA36D43F08053A365A36D03F08053A9
:1018E8000193019BFFF790FFA36D23F08053A3653D
:1018F800E4E7802D03D9A02D03D9022104E00021BB
:1019080002E0012100E003210A4A136823F00703DB
:101918000B431360136803F007038B4206D00120C2
:1019280003B030BD0221EFE70121EDE70020F7E722
:101938000010024000200240284A9368D26802F052
:10194800030213F00C030AD00C2B06D0042B1FD073
:10195800082B20D00020024610E0012AF6D11F4AA9
:10196800126812F0080F0CD11C4AD2F89420C2F366
:1019780003221B4951F8222043B100200C2B0DD023
:101988007047164A1268C2F30312F2E71046F5E7E9
:1019980014480022F2E714480022EFE70F4BDB68F7
:1019A80003F00303022B15D0032B15D00B4BD8687B
:1019B800C0F302100130D968C1F3062102FB01F21D
:1019C800B2FBF0F2D868C0F3416001304000B2FBCE
:1019D800F0F0D5E7034AE9E7034AE7E700100240D9
:1019E800743600080024F40000127A00002800F081
:1019F800F482F0B583B00446AF4B9D6805F00C0542
:101A0800DE6806F00306036813F0100F5BD0E5B13B
:101A18000C2D18D0A369002B00F0BC80A64A1368CF
:101A280043F001031360FFF763FC0746A24B1B68F2
:101A380013F0020F40F09B80FFF75AFCC01B0228EE
:101A4800F4D90323D5E2012EE4D19B4B1B6813F094
:101A5800020F03D0A369002B00F0C282206A964BC4
:101A68001B6813F0080F5CD0934B1B6803F0F0035E
:101A780098425DD8904B1A6842F008021A601A68BA
:101A880022F0F002216A0A431A605A6822F47F425F
:101A9800E16942EA01225A60002D61D0FFF74CFF4C
:101AA800854B9B68C3F30313844AD35C03F01F037D
:101AB800D840834B1860834B1868FFF7D1FB034667
:101AC800002840F09682236813F0010F00F081800F
:101AD800082D75D00C2D71D06368B3F5803F00F0E8
:101AE8009780B3F5A02F00F09980734B1A6822F401
:101AF80080321A601A6822F480221A606368002B08
:101B080000F09980FFF7F4FB07466B4B1B6813F452
:101B1800003F5ED1FFF7ECFBC01B6428F5D9032317
:101B280067E2654BD3F894301B0903F0F0039FE795
:101B3800FFF7BAFE002840F055825F4B1A6842F062
:101B480008021A601A6822F0F002216A0A431A6031
:101B58005A6822F47F42E16942EA01225A609DE70D
:101B6800206AFFF7A1FE002898D0012341E2524BDA
:101B78001A6842F008021A601A6822F0F002216A14
:101B88000A431A605A6822F47F42E16942EA012254
:101B98005A6098E7484A136823F001031360FFF777
:101BA800A7FB0746444B1B6813F0020F8BD0FFF7C7
:101BB8009FFBC01B0228F5D903231AE2032E8BD101
:101BC8003D4B1B6813F4003F03D06368002B00F003
:101BD8000B82236813F0020F4FD0042D3CD00C2D3C
:101BE80038D0E368002B78D0334A136843F4807305
:101BF8001360FFF77DFB06462F4B1B6813F4806FBD
:101C080062D1FFF775FB801B0228F5D90323F0E1A9
:101C1800294A136843F4803313606FE703F1804364
:101C2800A3F53C331A6842F480221A601A6842F419
:101C380080321A6062E7FFF75BFB07461E4B1B68A2
:101C480013F4003FC5D0FFF753FBC01B6428F5D938
:101C58000323CEE1022EC4D1174B1B6813F4806F07
:101C680003D0E368002B00F0C181134A536823F0C6
:101C7800F853216943EA01635360236813F0080F9E
:101C880056D06369002B3CD00B4AD2F8943043F00D
:101C98000103C2F89430FFF72BFB0646064BD3F836
:101CA800943013F0020F43D1FFF722FB801B022868
:101CB800F4D903239DE100BF00100240A4360008B8
:101CC8000000002008000020B74A536823F0F853AA
:101CD800216943EA01635360CFE7B34A136823F4E9
:101CE80080731360FFF704FB0646AF4B1B6813F4C1
:101CF800806FC2D0FFF7FCFA801B0228F5D90323B6
:101D080077E1A94AD2F8943023F00103C2F894305D
:101D1800FFF7EEFA0646A44BD3F8943013F0020FFF
:101D280006D0FFF7E5FA801B0228F4D9032360E107
:101D3800236813F0040F7AD09B4B9B6D13F0805FE0
:101D48000BD1994B9A6D42F080529A659B6D03F0C6
:101D580080530193019B012600E00026934B1B68EA
:101D680013F4807F26D0A368012B37D0052B3DD0F4
:101D78008D4BD3F8902022F00102C3F89020D3F8BD
:101D8800902022F00402C3F89020A368002B3BD0D7
:101D9800FFF7AEFA0746844BD3F8903013F0020FE2
:101DA80044D1FFF7A5FAC01B41F288339842F2D913
:101DB80003231EE17D4A136843F480731360FFF721
:101DC80097FA0746794B1B6813F4807FCBD1FFF74E
:101DD8008FFAC01B0228F5D903230AE1724AD2F808
:101DE800903043F00103C2F89030CEE76E4BD3F841
:101DF800902042F00402C3F89020D3F8902042F0DB
:101E08000102C3F89020C0E7FFF772FA0746664B55
:101E1800D3F8903013F0020F08D0FFF769FAC01B0F
:101E280041F288339842F2D90323E2E0EEB9A36A7B
:101E3800002B00F0DD80022B1DD00C2D00F0E2807D
:101E4800594A136823F080731360FFF751FA044668
:101E5800554B1B6813F0007F00F0B880FFF748FA75
:101E6800001B0228F4D90323C3E04F4A936D23F0E3
:101E780080539365DBE74C4BDB6803F00301E26AB0
:101E880091420FD00C2D00F0B780474B1B6813F020
:101E9800806F40F0B380444B1B6813F0805F2DD0F7
:101EA8000123A6E003F07002216B0139B2EB011F98
:101EB800E8D103F4FE42616BB2EB012FE2D103F4E7
:101EC8000031A26B073A18BF01229142DAD103F41C
:101ED800C001E26B5208013AB1EB425FD2D103F084
:101EE800C063226C5208013AB3EB426FCAD12E4B41
:101EF8001B6813F0007F4AD000237AE02A4A13684F
:101F080023F080731360FFF7F3F90546264B1B682F
:101F180013F0007F06D0FFF7EBF9401B0228F5D934
:101F2800032366E0204AD36821491940E36A206BFD
:101F3800013843EA0013606B43EA0023E06B400872
:101F4800013843EA4053206C4008013843EA4063B3
:101F5800A06B000943EA40430B43D360136843F086
:101F680080731360D36843F08073D360FFF7C0F9C0
:101F780004460D4B1B6813F0007F06D1FFF7B8F934
:101F8800001B0228F5D9032333E0002331E0064B78
:101F98001A6842F080721A60DA6842F08072DA6079
:101FA800FFF7A6F904460AE000100240007000405E
:101FB8008C809DF9FFF79CF9001B022820D8124B52
:101FC8001B6813F0007FF5D0002312E00E4AD16899
:101FD8000E4B0B40D36000230BE0012318467047DB
:101FE800012306E0012304E0012302E0012300E0CD
:101FF8000023184603B0F0BD0123FAE70123F8E7F0
:102008000323F6E70123F4E700100240FCFFEEFE8D
:10201800002800F0B28070B504465A4B1B6803F0E4
:1020280007038B420CD2574A136823F007030B436C
:102038001360136803F007038B4201D0012070BDC1
:10204800236813F0020F0CD0A2684F4B9B6803F073
:10205800F0039A4205D94C48836823F0F0031A43E9
:1020680082600D46236813F0010F39D06368032B93
:1020780009D0022B26D063BB434A126812F0020F24
:1020880006D10120DBE7404A126812F0007F76D0C3
:102098003D498A6822F0030213438B60FFF728F951
:1020A8000646394B9B6803F00C036268B3EB820F5A
:1020B80016D0FFF71DF9801B41F288339842F0D9FA
:1020C8000320BCE7304A126812F4003FE0D1012037
:1020D800B5E72D4A126812F4806FD9D10120AEE716
:1020E800236813F0020F0CD0A268274B9B6803F0FB
:1020F800F0039A4205D224498B6823F0F0031A436F
:102108008A60204B1B6803F00703AB420CD91D4AB9
:10211800136823F007032B431360136803F00703C6
:10212800AB4201D001208AE7236813F0040F06D0E0
:10213800154A936823F4E063E1680B4393602368CE
:1021480013F0080F07D0104A936823F460532169ED
:1021580043EAC1039360FFF7EFFB0B4B9B68C3F3A4
:1021680003130A4AD35C03F01F03D840084B1860D6
:10217800084B1868FFF774F861E7012070470120E1
:102188005DE700BF0020024000100240A4360008AE
:102198000000002008000020014B1868704700BFAD
:1021A8000000002008B5FFF7F7FF054B9B68C3F355
:1021B8000223044AD35C03F01F03D84008BD00BFC4
:1021C80000100240B436000808B5FFF7E5FF054BDC
:1021D8009B68C3F3C223044AD35C03F01F03D840AF
:1021E80008BD00BF00100240B4360008F8B55A4BCD
:1021F800DB6813F0030F18D0574BDB6803F00303B9
:102208000268934202D001252846F8BD002A00F052
:10221800A080514BDB68C3F3021301334268934239
:1022280001D00125F0E700251AE00368022B59D0F8
:10223800032B5ED0012B01D001250FE0464A12681E
:1022480012F0020F61D0444DEA6822F0730244682C
:10225800013C43EA04131343EB600025002DD3D15E
:102268000F4604463C4A136823F080631360FFF767
:102278003FF80646384B1B6813F0006F05D0FFF790
:1022880037F8801B0228F5D90325002DBCD1002F73
:102298003DD131490B6923F41F3323F44073A068FF
:1022A800E2681209520442EA002213430B612A4AE7
:1022B800136843F080631360FFF71AF80646264B4D
:1022C8001B6813F0006F05D1FFF712F8801B022876
:1022D800F5D90325002D97D11F4A1369A1690B432E
:1022E800136191E71C4A126812F4806FABD1012583
:1022F800B4E7194A126812F4003FA4D1164A1268CA
:1023080012F4802F9FD10125A8E70125A6E7012F08
:102318000FD01148026922F0C06222F4FE42A1687F
:1023280063695B08013B5B0643EA012313430361CE
:10233800BDE70948026922F4C00222F4FE42A168FE
:1023480023695B08013B5B0543EA012313430361EF
:10235800ADE7012558E700BF00100240F8B5514B22
:10236800DB6813F0030F18D04E4BDB6803F0030350
:102378000268934202D001252846F8BD002A00F0E1
:102388008E80484BDB68C3F30213013342689342E3
:1023980001D00125F0E700251AE00368022B59D087
:1023A800032B5ED0012B01D001250FE03D4A1268B6
:1023B80012F0020F61D03B4DEA6822F073024468C4
:1023C800013C43EA04131343EB600025002DD3D1ED
:1023D8000F460446334A136823F080531360FEF710
:1023E80087FF06462F4B1B6813F0005F05D0FEF7EA
:1023F8007FFF801B0228F5D90325002DBCD1002FB3
:102408003DD128494B6923F41F3323F44073A06856
:10241800E2681209520442EA002213434B61214A3E
:10242800136843F080531360FEF762FF06461D4BA6
:102438001B6813F0005F05D1FEF75AFF801B0228C6
:10244800F5D90325002D97D1164A536961690B43C5
:10245800536191E7134A126812F4806FABD10125DA
:10246800B4E7104A126812F4003FA4D10D4A12686A
:1024780012F4802F9FD10125A8E70125A6E7094876
:10248800426922F0C06222F4FE42A16823695B0817
:10249800013B5B0643EA012313434361BFE7012580
:1024A8006AE700BF001002402DE9F04182B00446FF
:1024B800036813F4006F2FD0436EB3F5800F25D057
:1024C80008D9B3F5000F10D0B3F5400F40F099804C
:1024D800002610E0002B40F0948000210430FFF724
:1024E80085FE06463EB1374618E05E4AD36843F497
:1024F8008033D36000265B4AD2F8883023F4400347
:10250800616E0B43C2F88830002707E000212030B5
:10251800FFF724FF0646E5E700273E46236813F445
:10252800805F15D0A36EB3F1807F7AD06CD9B3F1F8
:10253800007F70D0B3F1407F7AD1002E7BD1494A19
:10254800D2F8883023F04073A16E0B43C2F888306C
:10255800236813F4003F00F08E80424B9B6D13F00C
:10256800805F6AD13F4B9A6D42F080529A659B6DAD
:1025780003F080530193019B4FF001083A4A136816
:1025880043F480731360FEF7B3FE0546364B1B68B1
:1025980013F4807F05D1FEF7ABFE401B0228F5D966
:1025A8000326002E62D12F4BD3F8903013F44073DA
:1025B80016D0D4F884209A4212D02A4AD2F8903001
:1025C80023F44073D2F8901041F48031C2F890108F
:1025D800D2F8901021F48031C2F89010C2F89030EF
:1025E80013F0010F2CD1002E40F043811D4AD2F880
:1025F800903023F44073D4F884100B43C2F8903021
:1026080035E001273E4689E793B90021201DFFF7F1
:10261800EDFD064691E7134AD36843F48033D3604F
:102628008BE7002104F12000FFF798FE064684E7B7
:1026380001273E468CE737468AE74FF000089DE7BA
:10264800FEF756FE0546074BD3F8903013F0020FFD
:10265800C9D1FEF74DFE401B41F288339842F2D9AA
:102668000326C0E700100240007000403746B8F16A
:10267800000F40F00081236813F0010F08D09D4A35
:10268800D2F8883023F00303A16B0B43C2F88830DB
:10269800236813F0020F08D0964AD2F8883023F046
:1026A8000C03E16B0B43C2F88830236813F0040F66
:1026B80008D0904AD2F8883023F03003216C0B43BD
:1026C800C2F88830236813F0080F08D0894AD2F876
:1026D800883023F0C003616C0B43C2F8883023684C
:1026E80013F0100F08D0834AD2F8883023F44073CF
:1026F800A16C0B43C2F88830236813F0200F08D070
:102708007C4AD2F8883023F44063E16C0B43C2F86A
:102718008830236813F4007F08D0764AD2F88830CE
:1027280023F44023E16D0B43C2F88830236813F487
:10273800806F08D06F4AD2F8883023F44013216E96
:102748000B43C2F88830236813F0400F08D0694A59
:10275800D2F8883023F44053216D0B43C2F88830F7
:10276800236813F0800F08D0624AD2F8883023F427
:102778004043616D0B43C2F88830236813F4807FAF
:1027880008D05C4AD2F8883023F44033A16D0B435B
:10279800C2F88830236813F4005F0FD0554AD2F886
:1027A800883023F04063E16E0B43C2F88830E36E53
:1027B800B3F1006F65D0B3F1806F67D0236813F46D
:1027C800002F0FD04B4AD2F8883023F04063216F96
:1027D8000B43C2F88830236FB3F1006F5ED0B3F1BA
:1027E800806F60D0236813F4802F0FD0414AD2F84D
:1027F800883023F04063616F0B43C2F88830636F01
:10280800B3F1006F57D0B3F1806F59D0236813F438
:10281800804F0FD0374AD2F8883023F04053A16F49
:102828000B43C2F88830A36FB3F1805F50D0B3F187
:10283800005F55D0236813F4004F08D02D4AD2F812
:10284800883023F08043E16F0B43C2F88830236857
:1028580013F4803F09D0274AD2F8883023F0004388
:10286800D4F880100B43C2F88830384602B0BDE86F
:10287800F0813746FBE61F4A936D23F0805393653A
:10288800F9E6D36843F48013D36097E70121201D4C
:10289800FFF7ACFC002891D007468FE7D36843F4D4
:1028A8008013D3609EE70121201DFFF79FFC0028BD
:1028B80098D0074696E7D36843F48013D360A5E71A
:1028C8000121201DFFF792FC00289FD007469DE7B5
:1028D8000221201DFFF78AFC0028ABD00746A9E794
:1028E800022104F12000FFF739FD0028A2D0074695
:1028F800A0E700BF00100240026852E8003F23F43E
:10290800907342E800310029F6D1026802F1080309
:1029180053E8003F23F00103083242E80031002960
:10292800F3D1036E012B05D02023C3670023036670
:1029380043667047026852E8003F23F0100342E8FC
:1029480000310029F6D1EFE7704708B5026852E870
:10295800003F23F0400342E800310029F6D120234C
:10296800836700238366FFF7EFFF08BD704708B54C
:10297800806A0023A0F85A30A0F85230FFF7F6FF1B
:1029880008BD704770B504460168CB6908688D6852
:1029980040F60F021A400AD113F0200F07D010F0AA
:1029A800200F04D0636E0BB12046984770BD002AF3
:1029B80000F0968015F0010203D1A84E304200F0D5
:1029C8008F8013F0010F09D010F4807F06D0012505
:1029D8000D62D4F880102943C4F8801013F0020F58
:1029E80009D042B1216802250D62D4F8801041F067
:1029F8000401C4F8801013F0040F09D042B1216813
:102A080004250D62D4F8801041F00201C4F880104A
:102A180013F0080F0BD010F0200F00D13AB1226844
:102A280008211162D4F880200A43C4F8802013F4E6
:102A3800006F0CD010F0806F09D022684FF400614D
:102A48001162D4F8802042F02002C4F88020D4F823
:102A58008020002AAAD013F0200F06D010F0200FF3
:102A680003D0636E0BB120469847D4F880202368C2
:102A78009B6813F0400F02D112F0280F29D020468E
:102A8800FFF73AFF23689B6813F0400F1DD02268B8
:102A980002F1080353E8003F23F04003083242E8FC
:102AA80000310029F3D1236F5BB16D4A9A63206F1F
:102AB800FEF72FFD00283FF479AF206F836B98470E
:102AC80074E72046FFF752FF70E72046FFF74EFFF6
:102AD8006CE72046FFF74AFF0023C4F8803065E71B
:102AE800226E012A15D013F4801F03D015F4800F2D
:102AF80040F0A08013F0800F00F0A38010F0800F4A
:102B080000F09F80A36E002B3FF450AF20469847FB
:102B18004CE713F0100FE6D010F0100FE3D010239D
:102B28000B6223689B6813F0400F4DD0226F136827
:102B38005B689BB2002B3FF439AFB4F85810994248
:102B48007FF634AFA4F85A3013681B6813F0200FCF
:102B580030D1226852E8003F23F4807342E8003104
:102B68000029F6D1226802F1080353E8003F23F058
:102B78000103083242E800310029F3D1226802F14A
:102B8800080353E8003F23F04003083242E80031CD
:102B98000029F3D12023E36700232366226852E843
:102BA800003F23F0100342E800310029F6D1206FDE
:102BB800FEF78AFCB4F85810B4F85A30C91A89B22A
:102BC8002046FFF7DEFEF1E6B4F85810B4F85A30A4
:102BD800C91A89B2B4F85A309BB2002B3FF4E6AE5A
:102BE80000293FF4E3AE226852E8003F23F49073D3
:102BF80042E800300028F6D1226802F1080353E8C1
:102C0800003F23F00103083242E800300028F3D1E6
:102C18002023E367002323666366226852E8003FA7
:102C280023F0100342E800300028F6D12046FFF7D1
:102C3800A8FEBBE64FF480130B62204600F08AFC26
:102C4800B4E613F0400F3FF4B1AE10F0400F3FF47C
:102C5800ADAE2046FFF779FEA8E600BF20010004CC
:102C68007729000808B5B0F85C30C26F222A05D071
:102C78000268138B43F00803138308BD0268918C24
:102C8800DBB2426D0B401370436D01334365B0F8FE
:102C98005A30013B9BB2A0F85A30B0F85A309BB278
:102CA800002BEAD1026852E8003F23F4907342E80F
:102CB80000310029F6D1026802F1080353E8003F09
:102CC80023F00103083242E800310029F3D1202320
:102CD800C36700234366036E012B16D100230366E6
:102CE800026852E8003F23F0100342E8003100294F
:102CF800F6D10368DA6912F0100F01D010221A62B7
:102D0800B0F85810FFF73DFEB7E7FEF757F8B4E7FD
:102D180008B5B0F85C30C26F222A05D00268138B60
:102D280043F00803138308BD0268918C426D0B4081
:102D38001380436D02334365B0F85A30013B9BB2B0
:102D4800A0F85A30B0F85A309BB2002BEBD1026889
:102D580052E8003F23F4907342E800310029F6D18D
:102D6800026802F1080353E8003F23F00103083228
:102D780042E800310029F3D12023C36700234366CA
:102D8800036E012B16D100230366026852E8003F48
:102D980023F0100342E800310029F6D10368DA690C
:102DA80012F0100F01D010221A62B0F85810FFF775
:102DB800E8FDB8E7FEF702F8B5E700002DE9D848C6
:102DC8000446016883680269134342691343C26970
:102DD800134308689B4A024013430B6022685368F8
:102DE80023F44053E1680B435360A1692268964B72
:102DF8009A4201D0236A1943936823F430630B4342
:102E080093602368914A934227D0914A934238D0DD
:102E1800904A93424ED0904A934261D08F4A93424F
:102E280074D0894A934200F08A80102286498B42E6
:102E380000F0AA80E369B3F5004F00F0D880082AB3
:102E480000F24581DFE812F015012C01130143015E
:102E58002F01430143014301320102F55842D2F8E0
:102E6800882002F00302032A09D8DFE802F00204EE
:102E780081060122DAE70422D8E70822D6E71022E1
:102E8800D4E702F5E632D2F8882002F00C020C2AC8
:102E98000ED8DFE802F0070D0D0D090D0D0D6F0DB1
:102EA8000D0D0B000022C1E70422BFE70822BDE791
:102EB8001022BBE702F5E432D2F8882002F0300293
:102EC800102A09D005D9202A56D0302A06D108223E
:102ED800ACE71AB90022A9E70422A7E71022A5E760
:102EE80002F5E232D2F8882002F0C002402A09D066
:102EF80005D9802A42D0C02A06D1082296E71AB9F5
:102F0800002293E7042291E710228FE702F5E032CE
:102F1800D2F8882002F44072B2F5807F0BD007D92E
:102F2800B2F5007F2CD0B2F5407F06D108227DE7AC
:102F38001AB900227AE7042278E7102276E702F528
:102F4800C832D2F8882002F44062B2F5806F0BD004
:102F580007D9B2F5006F15D0B2F5406F06D1082237
:102F680064E71AB9002261E704225FE710225DE7EF
:102F780002225BE7022259E7022257E7022255E7BD
:102F8800022253E7022251E7082A00F29280DFE882
:102F980002F0089010900D90909005004FF40040BA
:102FA80008E0FFF7FFF828B9002074E0FEF7C4FC3A
:102FB800F9E72B48626802EB420383427BD8B0EB07
:102FC800023F7AD80023070E0602500816EB000BC2
:102FD80047F1000C58466146FDF7F2F8A0F540723B
:102FE800204B9A426BD82368D860002053E0082A07
:102FF80067D8DFE802F007210566246666663900AF
:10300800174803E0FFF7CEF800285CD06268530841
:1030180003EB4000B0FBF2F0A0F110024FF6EF73A3
:103028009A4252D883B223F00F03C0F342001843E8
:103038002368D86000202EE0FFF7C6F8E4E7FEF723
:103048007BFCE1E7F369FFEF0080004000380140B6
:103058000044004000480040004C00400050004040
:103068000024F400FFFC0F004FF40040CEE71B489B
:1030780002E0FFF797F860B3636800EB5300B0FB1A
:10308800F3F0A0F110024FF6EF739A4223D82368A9
:1030980080B2D860002000236366A366BDE8D888A4
:1030A800FFF792F8E7E7FEF747FCE4E74FF4004044
:1030B800E2E70120EFE70120EDE70120EBE701203F
:1030C800E9E70120E7E70020E5E70120E3E7012041
:1030D800E1E70020DFE70120DDE700BF0024F4007E
:1030E800436A13F0010F06D00268536823F40033D3
:1030F800816A0B435360436A13F0020F06D00268DB
:10310800536823F48033C16A0B435360436A13F056
:10311800040F06D00268536823F48023016B0B4325
:103128005360436A13F0080F06D00268536823F40B
:103138000043416B0B435360436A13F0100F06D0F2
:103148000268936823F48053816B0B439360436A4E
:1031580013F0200F06D00268936823F40053C16B64
:103168000B439360436A13F0400F0AD00268536818
:1031780023F48013016C0B435360036CB3F5801F79
:103188000BD0436A13F0800F06D00268536823F40B
:103198000023816C0B43536070470268536823F423
:1031A800C003416C0B435360EBE72DE9F041044643
:1031B8000F4616469846069D2368DB6937EA0303DF
:1031C8000CBF01230023B34251D1B5F1FF3FF3D027
:1031D800FEF78EF8A0EB0800A8422BD855B3236859
:1031E8001A6812F0040FE7D0DA6912F4006FE3D01E
:1031F8004FF400621A62226852E8003F23F4D07349
:1032080042E800310029F6D1226802F1080353E8A8
:10321800003F23F00103083242E800310029F3D1CE
:103228002023A367E367C4F88030002384F8743050
:1032380003201DE0226852E8003F23F4D07342E8DF
:1032480000310029F6D1226802F1080353E8003F53
:1032580023F00103083242E800310029F3D120238A
:10326800A367E367002384F87430032000E000209C
:10327800BDE8F0812DE9F04182B01E46836F202B16
:1032880056D104460D469046002956D0002A56D0FD
:1032980090F87430012B54D0012380F87430002347
:1032A800C0F8803021238367FEF722F80746A4F888
:1032B8005080A4F85280A368B3F5805F05D04FF022
:1032C8000008002384F8743013E0236913B14FF029
:1032D8000008F6E7A8460025F3E738F8023B22681D
:1032E800C3F308031385B4F85230013B9BB2A4F82A
:1032F8005230B4F852309BB273B100963B4600226C
:1033080080212046FFF751FFE8B9002DE5D023685A
:1033180015F8012B1A85E6E700963B460022402166
:103328002046FFF742FF034678B92022A26700E053
:103338000223184602B0BDE8F0810123F9E7012312
:10334800F7E70223F5E70323F3E70323F1E730B5B3
:1033580083B004460023C0F88030FDF7C9FF054656
:1033680023681B6813F0080F0DD123681B6813F03E
:10337800040F16D12023A367E3670020206684F892
:10338800740003B030BD6FF07E4300930346002203
:103398004FF400112046FFF708FF0028E5D003206E
:1033A800EFE76FF07E4300932B4600224FF4800135
:1033B8002046FFF7FAFE0028DCD00320E1E768B3D7
:1033C80010B50446836F03B32423A36722681368E8
:1033D80023F0010313602046FFF7F0FC012813D007
:1033E800636ABBB92268536823F490435360226828
:1033F800936823F02A0393602268136843F001035B
:1034080013602046FFF7A3FF10BD80F87430FDF766
:1034180077FED9E72046FFF763FEE3E70120704710
:103428004165A0F85820A0F85A2000234366836815
:10343800B3F5805F06D0A3B9036973B9FF23A0F879
:103448005C3014E0036923B940F2FF13A0F85C3044
:103458000DE0FF23A0F85C3009E07F23A0F85C3082
:1034680005E0B3F1805F29D00023A0F85C30002389
:10347800C0F880302223C367026802F1080353E8CA
:10348800003F43F00103083242E800310029F3D13C
:103498008368B3F5805F1BD0154B4366002380F823
:1034A80074300369D3B1026852E8003F43F4907363
:1034B80042E800310029F6D10020704703691BB9A2
:1034C8007F23A0F85C30D2E73F23A0F85C30CEE73A
:1034D8000369002BE0D1074B4366DFE7026852E837
:1034E800003F43F0200342E800310029F6D1E3E72A
:1034F8006D2C0008192D000838B5C36F202B1ED17C
:10350800F9B102B390F87430012B1ED0012380F872
:1035180074300023036603680D4CA3420CD05B682B
:1035280013F4000F08D0046854E8003F43F08063A8
:1035380044E80035002DF6D1FFF772FF00E00220C5
:1035480038BD0120FCE70120FAE70220F8E700BFB8
:103558000080004070470000DFF834D0FDF776FEA9
:103568000C480D490D4A002302E0D458C4500433D6
:10357800C4188C42F9D30A4A0A4C002301E01360AC
:103588000432A242FBD300F011F8FDF783FCFEE7FA
:10359800008001200000002010000020A84400083E
:1035A8001000002064010020FEE7000070B50D4EF9
:1035B8000D4CA41BA4100025A54209D10B4E0C4CA0
:1035C80000F020F8A41BA4100025A54205D170BD69
:1035D80056F8253098470135EEE756F825309847D4
:1035E8000135F2E798440008984400089844000818
:1035F8009C44000802440346934200D1704703F8F4
:10360800011BF9E7F8B500BFF8BC08BC9E46704737
:10361800F8B500BFF8BC08BC9E4670470000000023
:103628005C440008644400086C44000878440008BE
:10363800144400081C4400087C4400088444000822
:103648005C440008644400086C44000824440008F2
:103658002C440008344400083C440008484400084E
:1036680054440008144400081C440008A0860100C3
:10367800400D0300801A060000350C0040420F0080
:1036880080841E0000093D0000127A000024F40026
:1036980000366E010048E801006CDC020000000002
:1036A80000000000010203040607080900000000EA
:1036B8000102030423232323232323232323232354
:1036C80023232323232323232323232323232323C2
:1036D80023232323232323232323232323232323B2
:1036E8002323232323230D0A000000002320202066
:1036F80020202020202020202020202020202020C2
:1037080020202020202020202020202020202020B1
:1037180020202020202020202020202020230D0AC7
:10372800000000002320202020202020202020200E
:10373800455343415045205448452049534C414E38
:10374800442020202020202020202020202020204D
:103758002020202020230D0A0000000020205B509C
:103768005D20506C61790D0A0000000020205B5834
:103778005D20457869740D0A000000000D0A3E209E
:10378800000000000D0A2D2D2043686F6F7365201F
:10379800796F7572207375727669766F72202D2D28
:1037A8000D0A0D0A0000000020205B315D20456EE7
:1037B80067696E656572202020202D20626574740B
:1037C80065722070757A7A6C65206F7574636F6D99
:1037D80065730D0A0000000020205B325D204D65F6
:1037E800646963202020202020202D2073746172BA
:1037F80074732077697468206869676865722068DF
:1038080065616C74680D0A0020205B335D20537578
:1038180072766976616C697374202D2062657474A0
:103828006572207265736F757263652066696E6470
:10383800730D0A0020205B345D20536B657074693A
:103848006320202020202D20726564756365642024
:103858006D6F72616C6520666F72206F7468657237
:10386800730D0A000D0A2D2D2043686F6F736520B4
:10387800646966666963756C7479202D2D0D0A0D6F
:103888000A00000020205B455D2045617379202DEA
:103898002068696E747320656E61626C65642C20A3
:1038A8006D6F7265207265736F75726365730D0A4B
:1038B8000000000020205B485D2048617264202DD4
:1038C800206E6F2068696E74732C20736361726355
:1038D80065207265736F75726365730D0A00000069
:1038E8000D0A3D3D204245414348203D3D0D0A001B
:1038F8005761726D2073616E6420737472657463AE
:103908006865732061726F756E6420796F752E20FB
:103918005375727669766F72732074656E64206170
:1039280020736D616C6C20666972652E0D0A00004B
:10393800546865206265616368206665656C7320FC
:103948006578706F7365642E20457665727920738B
:103958006F756E64206D616B657320796F75206675
:103968006C696E63682E0D0A0000000054686520BB
:10397800776176657320736F756E642077726F6EEA
:10398800672E20546865206F74686572207375729D
:103998007669766F727320776F6E2774206D656510
:1039A8007420796F757220657965732E0D0A000091
:1039B8000D0A20205B315D205365617263682077B2
:1039C8007265636B6167650D0A00000020205B3239
:1039D8005D2054616C6B20746F2073757276697604
:1039E8006F72730D0A00000020205B335D2056695A
:1039F8006577206D61700D0A0000000020205B349F
:103A08005D205669657720696E76656E746F727988
:103A18000D0A000020205B355D2052657374202854
:103A2800616476616E636520646179290D0A00001E
:103A380020205B365D2054726176656C20746F209F
:103A4800616E6F74686572206C6F636174696F6E04
:103A58000D0A00000D0A2D2D496E76656E746F7281
:103A6800792D2D0D0A0000005B585D004E6F7468BB
:103A7800696E6720696E20496E76656E746F72791B
:103A8800207965742E0D0A000D0A50726573732033
:103A9800616E79206B657920746F20636F6E74692D
:103AA8006E75652E2E2E0D0A000000000D0A546852
:103AB8006520777265636B61676520686173206252
:103AC80065656E207069636B656420636C65616E03
:103AD8002E204E6F7468696E67206C6566742E0DB3
:103AE8000A0000000D0A596F752064696720746820
:103AF800726F7567682074686520777265636B619B
:103B08006765206275742066696E64206E6F7468DC
:103B1800696E67206E65772E0D0A00000D0A596FD1
:103B28007520666F756E643A20000000210D0A004A
:103B38000D0A2D2D205375727669766F7273202DBC
:103B48002D0D0A0D0A00000020205B315D20456E16
:103B580067696E6565720D0A0000000020205B32FF
:103B68005D204D656469630D0A00000020205B3309
:103B78005D20537572766976616C6973740D0A00FD
:103B880020205B345D20536B65707469630D0A00F7
:103B98000D0A456E67696E6565723A2022416E6F3F
:103BA8007468657220656E67696E6565723F204747
:103BB8006F6F642E20446F6E2774206765742069C8
:103BC8006E206D79207761792E220D0A00000000A1
:103BD8000D0A456E67696E6565723A202254686100
:103BE80074206B657920796F7520666F756E642E09
:103BF8002E2E2049207468696E6B206974206F70BE
:103C0800656E7320736F6D657468696E67206E6585
:103C18006172207468652062756E6B65722E220D64
:103C28000A0000000D0A456E67696E6565723A20E4
:103C380022476F6F6420776F726B206F6E207468F5
:103C48006520726164696F2E205765206D69676809
:103C5800742061637475616C6C7920676574206F7A
:103C68007574206F6620686572652E220D0A000043
:103C78000D0A456E67696E6565723A2022496620AD
:103C880077652063616E2066696E642061206261D9
:103C9800747465727920616E6420736F6D65207726
:103CA8006972652C20492063616E206669782074EA
:103CB800686520726164696F20746F7765722E225F
:103CC8000D0A00000D0A4D656469633A20224920F7
:103CD800646F6E2774206861766520656E6F7567FE
:103CE8006820737570706C69657320666F722062E6
:103CF8006F7468206F662075732E20506C65617331
:103D080065206265206361726566756C2E220D0AF6
:103D1800000000000D0A4D656469633A2022486F6F
:103D28006C64207374696C6C2E2E2E2049276C6C81
:103D380020706174636820796F752075702E220D6C
:103D48000A000000596F7572206865616C746820FC
:103D5800696E637265617365642E0D0A0000000068
:103D68000D0A537572766976616C6973743A20220C
:103D7800596F75206B6E6F772061732077656C6C57
:103D8800206173204920646F2E2E206A756E676C3F
:103D9800652068617320726F706520616E6420779A
:103DA8006F6F642E2053746F702077617374696E1F
:103DB800672074696D652E220D0A00000D0A53757F
:103DC80072766976616C6973743A2022546865204A
:103DD800726166742069732072656164792E20535C
:103DE80061792074686520776F726420616E642041
:103DF8007765206C656176652E220D0A000000004B
:103E08000D0A537572766976616C6973743A20226B
:103E18005765206E65656420726F706520616E64F9
:103E280020776F6F6420746F206275696C642061FD
:103E380020726166742E2049277665207365656E49
:103E480020626F746820696E20746865206A756ED8
:103E5800676C652E220D0A000D0A536B6570746934
:103E6800633A20224174206C6561737420796F7500
:103E780027726520686F6E6573742061626F757450
:103E8800206F757220736974756174696F6E2E2066
:103E980045766572796F6E6520656C736520697308
:103EA8002064656C7573696F6E616C2E220D0A0053
:103EB8000D0A536B65707469633A20224E6F626F06
:103EC800647920697320636F6D696E6720666F720D
:103ED8002075732E20576527726520676F696E6796
:103EE80020746F2064696520686572652E220D0A4A
:103EF800000000004D6F72616C6520646563726537
:103F0800617365642E0D0A005B4A554E474C452A7D
:103F18005D0000005B4A554E474C455D200000009F
:103F28005B544F5745522A5D200000005B544F57A1
:103F380045525D20200000005B42454143482A5D10
:103F4800200000005B42454143485D2020000000FE
:103F58005B434F4153542A5D200000005B434F41AF
:103F680053545D20200000005B434156452A5D20E4
:103F7800200000005B434156455D202020000000E2
:103F88005B42554E4B45522A5D0000005B42554E40
:103F98004B45525D2000000020203D3D3D3D3D3D0C
:103FA8003D3D3D3D3D3D3D3D3D3D3D3D3D3D3D3D39
:103FB8003D3D3D3D3D3D3D3D3D3D3D3D3D3D3D3D29
:103FC8003D3D3D3D0D0A00002020202020202020DE
:103FD800202020202020492053204C2041204E2002
:103FE800442020204D204120500D0A000D0A202099
:103FF800202000002D2D2D2D2D2D2D2D2D2D0000B7
:1040080020202020202020207C202020202020204C
:10401800202020202020202020202020207C0D0A65
:104028000000000020202020202020207C202020AC
:104038002020202849534C414E442920202020206C
:10404800207C0D0A00000000202020200000000035
:104058002D2D2D2D000000002020202020202020A4
:104068002020202020202020202020202020202048
:1040780020202020207C0D0A000000002020202085
:104088002020202020202020202020202020202028
:1040980020202020200000000D0A20203D3D3D3D2D
:1040A8003D3D3D3D3D3D3D3D3D3D3D3D3D3D3D3D38
:1040B8003D3D3D3D3D3D3D3D3D3D3D3D3D3D3D3D28
:1040C8003D3D3D3D3D3D0D0A0000000020204C6F68
:1040D800636174696F6E203A200000000D0A202089
:1040E8004461792020202020203A20000D0A202039
:1040F8002A203D20796F7520617265206865726598
:104108000D0A000020205B315D2042656163682054
:1041180028796F75206172652068657265290D0AB6
:104128000000000020205B315D2042656163680D5E
:104138000A00000020205B325D204A756E676C65BE
:104148002028796F75206172652068657265290D70
:104158000A00000020205B325D204A756E676C659E
:104168000D0A000020205B335D204361766520281E
:10417800796F75206172652068657265290D0A007E
:1041880020205B335D20436176650D0A0000000046
:1041980020205B345D20436F6173746C696E652009
:1041A80028796F75206172652068657265290D0A26
:1041B8000000000020205B345D20436F6173746C45
:1041C800696E650D0A0000000D0A2D2D20576865DF
:1041D800726520646F20796F752077616E74207422
:1041E8006F20676F3F202D2D0D0A0D0A000000007B
:1041F8000D0A3D3D204A554E474C45203D3D0D0A90
:1042080000000000546869636B2063616E6F707909
:104218002066696C74657273207468652073756EA6
:104228006C696768742E2042697264732063616CDC
:104238006C20696E207468652064697374616E63AC
:10424800652E0D0A00000000546865206A756E67C7
:104258006C65206665656C73206C696B6520697494
:104268002773207761746368696E6720796F752E8C
:1042780020457665727920727573746C65206D615E
:104288006B657320796F752074656E73652E0D0AE2
:1042980000000000546865207472656573207072B0
:1042A80065737320696E2061726F756E6420796F13
:1042B800752E20536F6D657468696E672069732069
:1042C8006F75742074686572652E20596F75277232
:1042D800652073757265206F662069742E0D0A005B
:1042E8000D0A20205B315D2053656172636820668A
:1042F8006F72206D6174657269616C730D0A0000DC
:1043080020205B325D2048756E7420666F722066CF
:104318006F6F640D0A00000020205B355D20547229
:104328006176656C0D0A00000D0A596F752073657A
:1043380061726368206275742066696E64206E6FAE
:104348007468696E67206E65772E0D0A000000009C
:104358000D0A596F752066696E643A2000000000E6
:104368000D0A596F75206361746368206120736D4D
:10437800616C6C20616E696D616C2E0D0A00000025
:1043880053746172766174696F6E206465637265D7
:10439800617365642E0D0A000D0A596F75206669F0
:1043A8006E64206E6F7468696E672E20426574743F
:1043B8006572206C75636B206E6578742074696D06
:1043C800652E00000D0A476F6F646279652E2050D4
:1043D8007265737320726573657420746F20706CD6
:1043E800617920616761696E2E0D0A000D0A596FA7
:1043F8007520726573742E204E6967687420666133
:104408006C6C732E2E2E0D0A00000000526F706522
:1044180000000000576F6F640000000042454143F0
:10442800480000004A554E474C4500004341564558
:1044380000000000434F4153544C494E45000000D2
:10444800524144494F20544F5745520042554E4B14
:10445800455200004261747465727900576972654B
:1044680000000000546F6F6C204B6974000000005E
:104478004D6170004B6E6966650000004F6C6420EA
:084488004B6579000000000003
:0844900068BDFF7F0100000080
:08449800AD0100080000000066
:0844A000890100080000000082
:1044A80000093D00010000001000000000000000AD
:040000050800356159
:00000001FF
